{"error":null,"id":"curltest","result":{"blockhash":"000000000000000783b2cf7aca4850f289e1cdb85c995796db56926a4fe94485","blocktime":1566492079,"confirmations":8699642,"hash":"c6249104d96c5966e4d18215090534cb1299ec417928d34b7e9a5a6426c91180","height":9295016,"hex":"010000000143bcbb24a674e38ac92454f6737d79aa5ac746dc5c73e3b21027282bc3891f55030000006b483045022100d815db01d338c7643c13e8aef5474001b2ba2c54a5e4e1a2c522cb21eb21d89302202b8c4ac7baf91e0231b63ed06df921729f18c2263f505c8aac774a7ccc88434f0121034499217d36ec38da0125265ef6ae4cdeedb286cefbb9e4a011cc372cdeac93edffffffff0458020000000000001976a914106d60966f1b96a189dd63de64f7f545ddeccd9388ac58020000000000001976a914381c59d667454b9b2f25ce3da0bbb78f2a2474dc88ac0000000000000000176a1544410215000201030103010e0105010a0127400104107dc304000000001976a914381c59d667454b9b2f25ce3da0bbb78f2a2474dc88ac00000000","locktime":0,"size":292,"time":1566492079,"txid":"c6249104d96c5966e4d18215090534cb1299ec417928d34b7e9a5a6426c91180","version":1,"vin":[{"address":"DAFnLriMwo5y7Nb6qeNf3JRcLSGdjvGw5n","assets":[],"scriptSig":{"asm":"3045022100d815db01d338c7643c13e8aef5474001b2ba2c54a5e4e1a2c522cb21eb21d89302202b8c4ac7baf91e0231b63ed06df921729f18c2263f505c8aac774a7ccc88434f[ALL] 034499217d36ec38da0125265ef6ae4cdeedb286cefbb9e4a011cc372cdeac93ed","hex":"483045022100d815db01d338c7643c13e8aef5474001b2ba2c54a5e4e1a2c522cb21eb21d89302202b8c4ac7baf91e0231b63ed06df921729f18c2263f505c8aac774a7ccc88434f0121034499217d36ec38da0125265ef6ae4cdeedb286cefbb9e4a011cc372cdeac93ed"},"sequence":4294967295,"txid":"551f89c32b282710b2e3735cdc46c75aaa797d73f65424c98ae374a624bbbc43","valueS":79922800,"vout":3}],"vout":[{"address":"D6dxNzgvqNKBfnW2cyKSgVJZUt26WPfnvJ","assets":[],"n":0,"scriptPubKey":{"addresses":["D6dxNzgvqNKBfnW2cyKSgVJZUt26WPfnvJ"],"asm":"OP_DUP OP_HASH160 106d60966f1b96a189dd63de64f7f545ddeccd93 OP_EQUALVERIFY OP_CHECKSIG","hex":"76a914106d60966f1b96a189dd63de64f7f545ddeccd9388ac","reqSigs":1,"type":"pubkeyhash"},"value":6.0000000000000002e-06,"valueS":600},{"address":"DAFnLriMwo5y7Nb6qeNf3JRcLSGdjvGw5n","assets":[],"n":1,"scriptPubKey":{"addresses":["DAFnLriMwo5y7Nb6qeNf3JRcLSGdjvGw5n"],"asm":"OP_DUP OP_HASH160 381c59d667454b9b2f25ce3da0bbb78f2a2474dc OP_EQUALVERIFY OP_CHECKSIG","hex":"76a914381c59d667454b9b2f25ce3da0bbb78f2a2474dc88ac","reqSigs":1,"type":"pubkeyhash"},"value":6.0000000000000002e-06,"valueS":600},{"address":"","assets":[],"n":2,"scriptPubKey":{"asm":"OP_RETURN 44410215000201030103010e0105010a0127400104","hex":"6a1544410215000201030103010e0105010a0127400104","type":"nulldata"},"value":0.0,"valueS":0},{"address":"DAFnLriMwo5y7Nb6qeNf3JRcLSGdjvGw5n","assets":[],"n":3,"scriptPubKey":{"addresses":["DAFnLriMwo5y7Nb6qeNf3JRcLSGdjvGw5n"],"asm":"OP_DUP OP_HASH160 381c59d667454b9b2f25ce3da0bbb78f2a2474dc OP_EQUALVERIFY OP_CHECKSIG","hex":"76a914381c59d667454b9b2f25ce3da0bbb78f2a2474dc88ac","reqSigs":1,"type":"pubkeyhash"},"value":0.79920400000000003,"valueS":79920400}],"vsize":292,"weight":1168}}